{
  "contractName": "Poll",
  "abi": [
    {
      "constant": true,
      "inputs": [
        {
          "name": "",
          "type": "uint256"
        }
      ],
      "name": "topics",
      "outputs": [
        {
          "name": "id",
          "type": "uint256"
        },
        {
          "name": "question",
          "type": "string"
        },
        {
          "name": "choiceCount",
          "type": "uint256"
        },
        {
          "name": "creator",
          "type": "address"
        },
        {
          "name": "isFinished",
          "type": "bool"
        }
      ],
      "payable": false,
      "stateMutability": "view",
      "type": "function"
    },
    {
      "constant": false,
      "inputs": [
        {
          "name": "_question",
          "type": "string"
        }
      ],
      "name": "addTopic",
      "outputs": [],
      "payable": false,
      "stateMutability": "nonpayable",
      "type": "function"
    },
    {
      "constant": false,
      "inputs": [
        {
          "name": "_choice",
          "type": "string"
        }
      ],
      "name": "addChoice",
      "outputs": [],
      "payable": false,
      "stateMutability": "nonpayable",
      "type": "function"
    },
    {
      "constant": false,
      "inputs": [],
      "name": "stepTopicsCount",
      "outputs": [],
      "payable": false,
      "stateMutability": "nonpayable",
      "type": "function"
    },
    {
      "constant": true,
      "inputs": [
        {
          "name": "_topicID",
          "type": "uint256"
        }
      ],
      "name": "isCreator",
      "outputs": [
        {
          "name": "_isCreator",
          "type": "bool"
        }
      ],
      "payable": false,
      "stateMutability": "view",
      "type": "function"
    },
    {
      "constant": false,
      "inputs": [
        {
          "name": "_topicID",
          "type": "uint256"
        },
        {
          "name": "_choiceID",
          "type": "uint256"
        }
      ],
      "name": "vote",
      "outputs": [],
      "payable": false,
      "stateMutability": "nonpayable",
      "type": "function"
    },
    {
      "constant": false,
      "inputs": [
        {
          "name": "_topicID",
          "type": "uint256"
        }
      ],
      "name": "endPoll",
      "outputs": [],
      "payable": false,
      "stateMutability": "nonpayable",
      "type": "function"
    }
  ],
  "bytecode": "0x608060405234801561001057600080fd5b50610924806100206000396000f300608060405260043610610083576000357c0100000000000000000000000000000000000000000000000000000000900463ffffffff16806318d9adab146100885780635b2b7fcd1461017a5780635fa520bb14610191578063b384abef146101fa578063c4ac65b714610231578063e6033a211461029a578063f43b8778146102df575b600080fd5b34801561009457600080fd5b506100b36004803603810190808035906020019092919050505061030c565b60405180868152602001806020018581526020018473ffffffffffffffffffffffffffffffffffffffff1673ffffffffffffffffffffffffffffffffffffffff16815260200183151515158152602001828103825286818151815260200191508051906020019080838360005b8381101561013b578082015181840152602081019050610120565b50505050905090810190601f1680156101685780820380516001836020036101000a031916815260200191505b50965050505050505060405180910390f35b34801561018657600080fd5b5061018f610407565b005b34801561019d57600080fd5b506101f8600480360381019080803590602001908201803590602001908080601f016020809104026020016040519081016040528093929190818152602001838380828437820191505050505050919291929050505061041b565b005b34801561020657600080fd5b5061022f60048036038101908080359060200190929190803590602001909291905050506104b9565b005b34801561023d57600080fd5b50610298600480360381019080803590602001908201803590602001908080601f016020809104026020016040519081016040528093929190818152602001838380828437820191505050505050919291929050505061060b565b005b3480156102a657600080fd5b506102c560048036038101908080359060200190929190505050610701565b604051808215151515815260200191505060405180910390f35b3480156102eb57600080fd5b5061030a60048036038101908080359060200190929190505050610784565b005b6000602052806000526040600020600091509050806000015490806001018054600181600116156101000203166002900480601f0160208091040260200160405190810160405280929190818152602001828054600181600116156101000203166002900480156103be5780601f10610393576101008083540402835291602001916103be565b820191906000526020600020905b8154815290600101906020018083116103a157829003601f168201915b5050505050908060020154908060030160009054906101000a900473ffffffffffffffffffffffffffffffffffffffff16908060030160149054906101000a900460ff16905085565b600160008154809291906001019190505550565b60008060006001548152602001908152602001600020905060606040519081016040528082600201548152602001838152602001600081525081600401600083600201548152602001908152602001600020600082015181600001556020820151816001019080519060200190610493929190610853565b506040820151816002015590505080600201600081548092919060010191905055505050565b600080600084815260200190815260200160002090508060050160003373ffffffffffffffffffffffffffffffffffffffff1673ffffffffffffffffffffffffffffffffffffffff16815260200190815260200160002060009054906101000a900460ff1615151561052a57600080fd5b6000831015801561053c575060015483105b151561054757600080fd5b6000821015801561055b5750806002015482105b151561056657600080fd5b8060030160149054906101000a900460ff1615151561058457600080fd5b60018160050160003373ffffffffffffffffffffffffffffffffffffffff1673ffffffffffffffffffffffffffffffffffffffff16815260200190815260200160002060006101000a81548160ff02191690831515021790555080600401600083815260200190815260200160002060020160008154809291906001019190505550505050565b60a0604051908101604052806001548152602001828152602001600081526020013373ffffffffffffffffffffffffffffffffffffffff168152602001600015158152506000806001548152602001908152602001600020600082015181600001556020820151816001019080519060200190610689929190610853565b506040820151816002015560608201518160030160006101000a81548173ffffffffffffffffffffffffffffffffffffffff021916908373ffffffffffffffffffffffffffffffffffffffff16021790555060808201518160030160146101000a81548160ff02191690831515021790555090505050565b60008060008084815260200190815260200160002090503373ffffffffffffffffffffffffffffffffffffffff168160030160009054906101000a900473ffffffffffffffffffffffffffffffffffffffff1673ffffffffffffffffffffffffffffffffffffffff161415610779576001915061077e565b600091505b50919050565b60008082815260200190815260200160002060030160009054906101000a900473ffffffffffffffffffffffffffffffffffffffff1673ffffffffffffffffffffffffffffffffffffffff163373ffffffffffffffffffffffffffffffffffffffff161415156107f357600080fd5b60008082815260200190815260200160002060030160149054906101000a900460ff1615151561082257600080fd5b600160008083815260200190815260200160002060030160146101000a81548160ff02191690831515021790555050565b828054600181600116156101000203166002900490600052602060002090601f016020900481019282601f1061089457805160ff19168380011785556108c2565b828001600101855582156108c2579182015b828111156108c15782518255916020019190600101906108a6565b5b5090506108cf91906108d3565b5090565b6108f591905b808211156108f15760008160009055506001016108d9565b5090565b905600a165627a7a723058202290dde3851f1e01ad0392f6fbad7966640acf0d3a296ec33a25e40830c3c17e0029",
  "source": "pragma solidity ^0.4.3;\r\ncontract Poll {\r\n    //model a topic\r\n    struct Topic {\r\n        uint id;    // can be 0\r\n        string question;\r\n        uint choiceCount;\r\n        address creator;\r\n        bool isFinished;\r\n        mapping (uint => Choice) choices;\r\n        mapping (address => bool) voters;\r\n    }\r\n    \r\n    struct Choice {\r\n        uint id;\r\n        string answer;\r\n        uint count;\r\n    }\r\n    \r\n    // Store accounts that have voted\r\n    \r\n    // List of Topics\r\n    mapping (uint => Topic) public topics;\r\n    \r\n    uint topicsCount;\r\n    \r\n    function addTopic (string _question) public {\r\n        topics[topicsCount] = Topic(topicsCount, _question, 0, msg.sender, false);\r\n    }\r\n    \r\n    // Add each for each choice\r\n    function addChoice (string _choice) public {\r\n        Topic storage t = topics[topicsCount];\r\n        t.choices[t.choiceCount] = Choice({id:t.choiceCount, answer:_choice, count:0});\r\n        t.choiceCount++;\r\n    }\r\n    \r\n    function stepTopicsCount () public {\r\n        topicsCount++;\r\n    }\r\n    \r\n    //maybe dont use it\r\n    function isCreator (uint _topicID) public view returns (bool _isCreator) {\r\n        Topic storage t = topics[_topicID];\r\n        if (t.creator == msg.sender)\r\n            return true;\r\n        return false;\r\n    }\r\n    \r\n    function vote (uint _topicID, uint _choiceID) public {\r\n        Topic storage t = topics[_topicID];\r\n        \r\n        // require that they haven't voted before\r\n        require(!t.voters[msg.sender]);\r\n        \r\n        // require a valid topic\r\n        require(_topicID >= 0 && _topicID < topicsCount);\r\n        \r\n        // require a valid choice\r\n        require(_choiceID >= 0 && _choiceID < t.choiceCount);\r\n        \r\n        // require that the topic hasn't end yet\r\n        require(!t.isFinished);\r\n        \r\n        // check as voted\r\n        t.voters[msg.sender] = true;\r\n        \r\n        // update counter\r\n        t.choices[_choiceID].count++;\r\n        \r\n        // trigger voted event\r\n        //votedEvent(_candidateId);\r\n    }\r\n    \r\n    function endPoll (uint _topicID) public {\r\n        // require creator to end poll\r\n        require(msg.sender == topics[_topicID].creator);\r\n        \r\n        // it is not ended\r\n        require(!topics[_topicID].isFinished);\r\n        \r\n        topics[_topicID].isFinished = true;\r\n    }\r\n    \r\n}",
  "sourcePath": "D:\\Study sheet\\Semester 61-1\\ADV\\adv-project\\AdvancePoll\\contracts\\Poll.sol",
  "compiler": {
    "name": "solc",
    "version": "0.4.24+commit.e67f0147.Emscripten.clang"
  },
  "schemaVersion": "2.0.1",
  "updatedAt": "2018-11-29T02:45:49.077Z"
}